{
  "contractName": "GuessNumberGame",
  "abi": [
    {
      "constant": true,
      "inputs": [
        {
          "name": "",
          "type": "uint256"
        }
      ],
      "name": "games",
      "outputs": [
        {
          "name": "player1",
          "type": "address"
        },
        {
          "name": "player2",
          "type": "address"
        },
        {
          "name": "player1Number",
          "type": "uint8"
        },
        {
          "name": "player2Number",
          "type": "uint8"
        },
        {
          "name": "result",
          "type": "uint8"
        }
      ],
      "payable": false,
      "stateMutability": "view",
      "type": "function"
    },
    {
      "constant": true,
      "inputs": [],
      "name": "owner",
      "outputs": [
        {
          "name": "",
          "type": "address"
        }
      ],
      "payable": false,
      "stateMutability": "view",
      "type": "function"
    },
    {
      "inputs": [],
      "payable": false,
      "stateMutability": "nonpayable",
      "type": "constructor"
    },
    {
      "anonymous": false,
      "inputs": [
        {
          "indexed": false,
          "name": "player1",
          "type": "address"
        },
        {
          "indexed": false,
          "name": "player1Number",
          "type": "uint8"
        }
      ],
      "name": "GameHosted",
      "type": "event"
    },
    {
      "anonymous": false,
      "inputs": [
        {
          "indexed": false,
          "name": "player2",
          "type": "address"
        },
        {
          "indexed": false,
          "name": "player2Number",
          "type": "uint8"
        }
      ],
      "name": "GameJoined",
      "type": "event"
    },
    {
      "anonymous": false,
      "inputs": [
        {
          "indexed": false,
          "name": "player1",
          "type": "address"
        },
        {
          "indexed": false,
          "name": "player2",
          "type": "address"
        },
        {
          "indexed": false,
          "name": "result",
          "type": "uint256"
        }
      ],
      "name": "GameEnded",
      "type": "event"
    },
    {
      "constant": true,
      "inputs": [],
      "name": "getGames",
      "outputs": [
        {
          "name": "",
          "type": "uint256[]"
        }
      ],
      "payable": false,
      "stateMutability": "view",
      "type": "function"
    },
    {
      "constant": false,
      "inputs": [
        {
          "name": "move",
          "type": "uint8"
        }
      ],
      "name": "hostGame",
      "outputs": [
        {
          "name": "success",
          "type": "bool"
        }
      ],
      "payable": false,
      "stateMutability": "nonpayable",
      "type": "function"
    },
    {
      "constant": false,
      "inputs": [
        {
          "name": "gameId",
          "type": "uint256"
        },
        {
          "name": "move",
          "type": "uint8"
        }
      ],
      "name": "joinGame",
      "outputs": [
        {
          "name": "success",
          "type": "bool"
        }
      ],
      "payable": false,
      "stateMutability": "nonpayable",
      "type": "function"
    },
    {
      "constant": false,
      "inputs": [
        {
          "name": "gameId",
          "type": "uint256"
        }
      ],
      "name": "revealMove",
      "outputs": [
        {
          "name": "success",
          "type": "bool"
        }
      ],
      "payable": false,
      "stateMutability": "nonpayable",
      "type": "function"
    },
    {
      "constant": true,
      "inputs": [
        {
          "name": "gameId",
          "type": "uint256"
        }
      ],
      "name": "getResult",
      "outputs": [
        {
          "name": "",
          "type": "uint8"
        }
      ],
      "payable": false,
      "stateMutability": "view",
      "type": "function"
    },
    {
      "constant": true,
      "inputs": [
        {
          "name": "gameId",
          "type": "uint256"
        }
      ],
      "name": "getHostValue",
      "outputs": [
        {
          "name": "",
          "type": "uint256"
        }
      ],
      "payable": false,
      "stateMutability": "view",
      "type": "function"
    },
    {
      "constant": true,
      "inputs": [
        {
          "name": "gameId",
          "type": "uint256"
        }
      ],
      "name": "getJoinedValue",
      "outputs": [
        {
          "name": "",
          "type": "uint256"
        }
      ],
      "payable": false,
      "stateMutability": "view",
      "type": "function"
    }
  ],
  "bytecode": "0x608060405234801561001057600080fd5b50336000806101000a81548173ffffffffffffffffffffffffffffffffffffffff021916908373ffffffffffffffffffffffffffffffffffffffff160217905550610b60806100606000396000f300608060405260043610610099576000357c0100000000000000000000000000000000000000000000000000000000900463ffffffff16806308e5c0681461009e5780631020e8e7146100e3578063117a5b90146101245780631f626149146101eb5780638c79bff0146102335780638da5cb5b14610274578063995e4339146102cb578063c04c594714610312578063ca6649c51461037e575b600080fd5b3480156100aa57600080fd5b506100c9600480360381019080803590602001909291905050506103d0565b604051808215151515815260200191505060405180910390f35b3480156100ef57600080fd5b5061010e60048036038101908080359060200190929190505050610569565b6040518082815260200191505060405180910390f35b34801561013057600080fd5b5061014f600480360381019080803590602001909291905050506105a8565b604051808673ffffffffffffffffffffffffffffffffffffffff1673ffffffffffffffffffffffffffffffffffffffff1681526020018573ffffffffffffffffffffffffffffffffffffffff1673ffffffffffffffffffffffffffffffffffffffff1681526020018460ff1660ff1681526020018360ff1660ff1681526020018260ff1660ff1681526020019550505050505060405180910390f35b3480156101f757600080fd5b50610219600480360381019080803560ff169060200190929190505050610654565b604051808215151515815260200191505060405180910390f35b34801561023f57600080fd5b5061025e60048036038101908080359060200190929190505050610890565b6040518082815260200191505060405180910390f35b34801561028057600080fd5b506102896108cf565b604051808273ffffffffffffffffffffffffffffffffffffffff1673ffffffffffffffffffffffffffffffffffffffff16815260200191505060405180910390f35b3480156102d757600080fd5b506102f6600480360381019080803590602001909291905050506108f4565b604051808260ff1660ff16815260200191505060405180910390f35b34801561031e57600080fd5b50610327610930565b6040518080602001828103825283818151815260200191508051906020019060200280838360005b8381101561036a57808201518184015260208101905061034f565b505050509050019250505060405180910390f35b34801561038a57600080fd5b506103b660048036038101908080359060200190929190803560ff1690602001909291905050506109b0565b604051808215151515815260200191505060405180910390f35b6000806002838154811015156103e257fe5b906000526020600020906002020190508060010160159054906101000a900460ff1660ff168160010160149054906101000a900460ff1660ff1614156104455760018160010160166101000a81548160ff021916908360ff160217905550610464565b60028160010160166101000a81548160ff021916908360ff1602179055505b7fc5e48929c6ad41636874ae3938e60e36431dd0899ca520e58c58107c9e4454de8160000160009054906101000a900473ffffffffffffffffffffffffffffffffffffffff168260010160009054906101000a900473ffffffffffffffffffffffffffffffffffffffff168360010160169054906101000a900460ff16604051808473ffffffffffffffffffffffffffffffffffffffff1673ffffffffffffffffffffffffffffffffffffffff1681526020018373ffffffffffffffffffffffffffffffffffffffff1673ffffffffffffffffffffffffffffffffffffffff1681526020018260ff168152602001935050505060405180910390a16001915050919050565b60008060028381548110151561057b57fe5b906000526020600020906002020190508060010160159054906101000a900460ff1660ff16915050919050565b6002818154811015156105b757fe5b90600052602060002090600202016000915090508060000160009054906101000a900473ffffffffffffffffffffffffffffffffffffffff16908060010160009054906101000a900473ffffffffffffffffffffffffffffffffffffffff16908060010160149054906101000a900460ff16908060010160159054906101000a900460ff16908060010160169054906101000a900460ff16905085565b600061065e610acf565b60008360ff16118015610674575060038360ff16105b151561067f57600080fd5b60a0604051908101604052803373ffffffffffffffffffffffffffffffffffffffff168152602001600073ffffffffffffffffffffffffffffffffffffffff1681526020018460ff168152602001600060ff168152602001600060ff1681525090506002819080600181540180825580915050906001820390600052602060002090600202016000909192909190915060008201518160000160006101000a81548173ffffffffffffffffffffffffffffffffffffffff021916908373ffffffffffffffffffffffffffffffffffffffff16021790555060208201518160010160006101000a81548173ffffffffffffffffffffffffffffffffffffffff021916908373ffffffffffffffffffffffffffffffffffffffff16021790555060408201518160010160146101000a81548160ff021916908360ff16021790555060608201518160010160156101000a81548160ff021916908360ff16021790555060808201518160010160166101000a81548160ff021916908360ff1602179055505050507f60aafb6469df618a5dd920377521a3ba2b70c93e05546c2dec90e30d563a71483384604051808373ffffffffffffffffffffffffffffffffffffffff1673ffffffffffffffffffffffffffffffffffffffff1681526020018260ff1660ff1681526020019250505060405180910390a16001600081548092919060010191905055506001915050919050565b6000806002838154811015156108a257fe5b906000526020600020906002020190508060010160149054906101000a900460ff1660ff16915050919050565b6000809054906101000a900473ffffffffffffffffffffffffffffffffffffffff1681565b60008060028381548110151561090657fe5b906000526020600020906002020190508060010160169054906101000a900460ff16915050919050565b60608060006002805490506040519080825280602002602001820160405280156109695781602001602082028038833980820191505090505b509150600090505b6002805490508110156109a85780828281518110151561098d57fe5b90602001906020020181815250508080600101915050610971565b819250505090565b6000806002848154811015156109c257fe5b9060005260206000209060020201905060008360ff161180156109e8575060038360ff16105b15156109f357600080fd5b338160010160006101000a81548173ffffffffffffffffffffffffffffffffffffffff021916908373ffffffffffffffffffffffffffffffffffffffff160217905550828160010160156101000a81548160ff021916908360ff1602179055507f4078332e6781ea1f186e70ca5e484c2557003423a2de4a2629986e40a9d623eb3384604051808373ffffffffffffffffffffffffffffffffffffffff1673ffffffffffffffffffffffffffffffffffffffff1681526020018260ff1660ff1681526020019250505060405180910390a1600191505092915050565b60a060405190810160405280600073ffffffffffffffffffffffffffffffffffffffff168152602001600073ffffffffffffffffffffffffffffffffffffffff168152602001600060ff168152602001600060ff168152602001600060ff16815250905600a165627a7a72305820402f9304204ff5a5b03f4899915904115621e2c4d7c728fb2af080686a5c88c50029",
  "source": "pragma solidity ^0.4.23;\r\n\r\ncontract GuessNumberGame {\r\n    struct Game {\r\n        address player1;\r\n        address player2;\r\n        uint8 player1Number;\r\n        uint8 player2Number;\r\n        uint8 result;\r\n    }\r\n\r\n    address public owner;\r\n    uint gameIdCounter;\r\n    Game[] public games;\r\n\r\n    event GameHosted(address player1, uint8 player1Number);\r\n    event GameJoined(address player2, uint8 player2Number);\r\n    event GameEnded(address player1, address player2, uint result);\r\n\r\n    constructor() public {\r\n        owner = msg.sender;\r\n    }\r\n\r\n    function getGames() public view returns (uint[]) {\r\n        uint[] memory ids = new uint[](games.length);\r\n        for (uint i = 0; i < games.length; i++) {\r\n            ids[i] = i;\r\n        }\r\n        return ids;\r\n    }\r\n\r\n    function hostGame(uint8 move) public returns (bool success) {\r\n        require(move > 0 && move < 3);\r\n        Game memory game = Game(msg.sender, address(0), move, 0, 0);\r\n        games.push(game);\r\n\r\n        emit GameHosted(msg.sender, move);\r\n\r\n        gameIdCounter++;\r\n\r\n        return true;\r\n    }\r\n\r\n    function joinGame(uint gameId, uint8 move) public returns (bool success) {\r\n        Game storage thisGame = games[gameId];\r\n        require(move > 0 && move < 3);\r\n        thisGame.player2 = msg.sender;\r\n        thisGame.player2Number = move;\r\n\r\n        emit GameJoined(msg.sender, move);\r\n\r\n        return true;\r\n    }\r\n\r\n    function revealMove(uint gameId) public returns (bool success) {\r\n        Game storage thisGame = games[gameId];\r\n\r\n        if (thisGame.player1Number == thisGame.player2Number) {\r\n            thisGame.result = 1;\r\n        } else {\r\n            thisGame.result = 2;\r\n        }\r\n\r\n        emit GameEnded(thisGame.player1, thisGame.player2, thisGame.result);\r\n\r\n        return true;\r\n    }\r\n\r\n    function getResult(uint gameId) public view returns (uint8) {\r\n        Game storage thisGame = games[gameId];\r\n        return thisGame.result;\r\n    }\r\n\r\n    function getHostValue(uint gameId) public view returns(uint) {\r\n        Game storage thisGame = games[gameId];\r\n        return thisGame.player1Number;\r\n    }\r\n\r\n    function getJoinedValue(uint gameId) public view returns(uint) {\r\n        Game storage thisGame = games[gameId];\r\n        return thisGame.player2Number;\r\n    }\r\n}",
  "sourcePath": "D:\\repositories\\number-game\\smart-contracts\\contracts\\Game.sol",
  "compiler": {
    "name": "solc",
    "version": "0.4.23+commit.124ca40d.Emscripten.clang"
  },
  "schemaVersion": "2.0.0",
  "updatedAt": "2018-05-22T09:45:16.770Z"
}